:020000020000FC
:0200000020C01E
:1000400029C005E005BD01E000936E00789400E052
:1000500006BD21E030E04EE110E021E024B9FDCF03
:10006000089520FD07C031FD08C031FD06C031FDF7
:1000700004C008952E7F326008953D7F5460089536
:100080005B7F68600895677F2160089511271017CE
:10009000F4F308951395189554E008955EEF0895CC
:1000A00054E608955DED089555EF089557E60895D7
:1000B00057EB08955FEB089554EE08955FEF0895B0
:1000C00057EE089558E008955EEF089558E60895B4
:1000D0005DED089559EF08955BE608955BEB089593
:1000E0005FEB089558EE08955FEF08955BEE089575
:00000001FF
