:020000020000FC
:0200000020C01E
:1000400072C004E005BD01E000936E00789410E0FA
:1000500016BD21E030E050E060E010E000E007B9BC
:1000600006E008B94CE370E080E090E00BD05DD092
:1000700079D037D001D0FACF3F7106B10295007622
:10008000302B0895141760F1112716BD7395783140
:1000900008F070E02170327EF0E0E6E5072F0C30CA
:1000A00010F008510195000FE00F09949395089501
:1000B00022600895246008952860089520610895BD
:1000C000206208952064089520680895316008959D
:1000D00034600895386008953061089583950895D7
:1000E000089520FD07C031FD0AC052FD0DC063FD1B
:1000F00010C008952AB92E7F2BB9326008953AB9FD
:100100003D7F3BB9546008955AB95B7F5BB9686025
:1001100008956AB9677F6BB921600895112716BDEC
:100120001017F4F30895139518955470EEE9F0E064
:10013000082F000FE00F0994506008955A6F08953A
:1001400050660895596D0895516F08955366089546
:10015000536B08955B6B0895506E08955B6F08951F
:10016000536E08956870EBEBF0E0092F000FE00F7D
:10017000099460600895666F089560660895656DDE
:100180000895616F089563660895636B0895676BC2
:0E0190000895606E0895676F0895636E089578
:00000001FF
