:020000020000FC
:0200000020C01E
:1000400066C004E005BD01E000936E00789410E006
:1000500016BD21E030E050E060E010E05BEF67EFBC
:100060004CE370E080E002D030D0FDCF141760F197
:10007000112716BD7395783108F070E02170327049
:10008000F0E0EAE4072F0C3010F008510195000F62
:10009000E00F0994000008952260089524600895F7
:1000A00028600895206108952062089520640895CD
:1000B0002068089531600895346008953860089587
:1000C0003061089500000895089520FD07C031FDB6
:1000D0000AC052FD0DC063FD10C008952AB92E7FDD
:1000E0002BB9326008953AB93D7F3BB95460089509
:1000F0005AB95B7F5BB9686008956AB9677F6BB96D
:1001000021600895112716BD1017F4F30895139573
:10011000189554E008955EEF089554E608955DED56
:10012000089555EF089557E6089557EB08955FEB4E
:10013000089554EE08955FEF089557EE089568E02E
:1001400008956EEF089568E608956DED089569EFDE
:1001500008956BE608956BEB08956FEB089568EED4
:0A01600008956FEF08956BEE089507
:00000001FF
