:020000020000FC
:0200000020C01E
:100040003BC005E005BD01E000936E00789410E030
:1000500016BD21E030E050E060E04EE110E020E02D
:1000600030E050E060E020E0216002D004D0FDCF1D
:10007000141700F0089520FD07C031FD0AC052FD9D
:100080000DC063FD10C008952AB92E7F2BB93260D0
:1000900008953AB93D7F3BB9546008955AB95B7FE2
:1000A0005BB9686008956AB9677F6BB9216008958C
:1000B00011271017F4F308951395189554E0089537
:1000C0005EEF089554E608955DED089555EF0895A7
:1000D00057E6089557EB08955FEB089554EE0895A1
:1000E0005FEF089557EE089558E008955EEF089584
:1000F00058E608955DED089559EF08955BE608957B
:100100005BEB08955FEB089558EE08955FEF089557
:040110005BEE089505
:00000001FF
