:020000020000FC
:0200000020C01E
:1000400079C004E005BD01E000936E00789410E0F3
:1000500016BD21E030E050E060E010E021E030E04B
:1000600050E060E05BEF67EF48E770E080E064D06D
:100070003FD001D0FCCF1417D0F1112716BD21704D
:10008000082F000F202B893010F080E00895839511
:100090000895141760F1112716BD7395783108F093
:1000A00070E021703270F0E0EDE5072F0C3010F0B9
:1000B00008510195000FE00F099400000895226097
:1000C00008952460089528600895206108952062AD
:1000D000089520640895206808953160089534607B
:1000E00008953860089530610895000008950895D6
:1000F00020FD07C031FD0AC052FD0DC063FD10C0D8
:1001000008952AB92E7F2BB9326008953AB93D7F00
:100110003BB9546008955AB95B7F5BB96860089534
:100120006AB9677F6BB921600895112716BD101752
:10013000F4F30895139518955470E5EAF0E0082F4C
:10014000000FE00F0994506008955A6F08955066AB
:100150000895596D0895516F089553660895536B2E
:1001600008955B6B0895506E08955B6F0895536E0C
:10017000089568E008956EEF089568E608956DEDBE
:10018000089569EF08956BE608956BEB08956FEBA2
:0E019000089568EE08956FEF08956BEE0895E0
:00000001FF
