:020000020000FC
:0200000020C01E
:1000400055C005E005BD01E000936E00789400E026
:1000500006BD21E030E84EE110E002D00DD0FDCF2A
:10006000141748F0112700E027FF03C020E031609B
:100070000895220F08950895032F0F7034FD02C0D4
:10008000369502C030683F78307F302B34FD06C093
:1000900035FD0BC036FD14C037FD1DC0022F000F0B
:1000A0000E7005B9016004B9089500E023FD0160F8
:1000B00024FD046025FD086005B9026004B90895B7
:1000C00000E026FD016027FD026030FD086005B9F3
:1000D000046004B90895032F0695077005B90860F8
:1000E00004B9089511271017F4F30895139518957E
:00000001FF
